:040000008A11F72F3B
:10000800F100F0013A307102031810283030710203
:10001800031C1028F001F00A700C08008316031363
:10002800490883120313C400831603134A08831272
:100038000313C500831603134B0883120313C6006A
:100048006730E2006208C7008A1591258A11831279
:100058000313E3006308ED00FF30EE00FF30EF000C
:10006800FF30EB00FF30EC00D2280130831203137D
:10007800EE070318EF0A0030EF076E086D07E2007D
:10008800620884002E3083130006031D50286F0871
:10009800EC006E08EB00D2286B0A03196C0A0319EE
:1000A800D2286B09E2006C09E300E20A0319E30AAB
:1000B8006E086207E4006F0803186F0A6307E5001B
:1000C800831603134D08803A83120313E60065086C
:1000D800803A6602031D74286408831603134C02D1
:1000E8000318D228831203136B08013EE2006C0840
:1000F8000318013E003EE300E209E309E20A03199E
:10010800E30A6E086207E4006F0803186F0A6307C2
:10011800E500831603134D08831203136506031DB8
:100128009B28831603134C08831203136406031DCC
:10013800CB286E086D07E20062088400353083130F
:1001480000020318B4286E08FF3E6D07E20062083B
:1001580084000008E300E4016308E9006408C0289B
:100168006E08FF3E6D07E200620884000008013E49
:10017800E900003003180130EA006908E2006E085F
:10018800FF3E6D07E30063088400620880006E0884
:100198006D07E20062088400831380018312031351
:1001A8006E08013E6D07E2006208840083130008B0
:1001B8000319E9286F08803AFF0080307F02031D89
:1001C800E72810306E02031C39284A308400BD30FD
:1001D80083120313E2000408E3000C30E400620811
:1001E800840083130008E500E20A630884006508B8
:1001F8008000E30AE40BF3286D08D6000030D7002E
:100208008A1589230800780883120313A000790847
:10021800A1007A08A2000310210D220DA3002308D3
:10022800A6007B08A0007C08A1007D08A20003109E
:10023800210D220DA3002308A50026080319302943
:1002480025082602031837292603FF3A2507A000A8
:1002580019302002031C37297B08F8007C08F900B4
:100268007D08FA0008002508031908002608250259
:10027800031846292503FF3A2607A0001930200253
:10028800031808000630A0002008A400FA1BA417D1
:10029800FD1B2417F917FF30F805FF30F90500306A
:1002A800FA05FC17FF30FB05FF30FC050030FD05A3
:1002B800250826020318862901300310FB0DFC0DC2
:1002C800FD0DFF3E031D61290130A5022508260604
:1002D800031981290130A402240807390319812947
:1002E800602901300310FA0CF90CF80CFF3E031DCD
:1002F80076290130A0002008A6072608250603193C
:10030800AF297529260825020318AF2901300310E3
:10031800F80DF90DFA0DFF3E031D8B290130A602D9
:10032800250826060319AB290130A4022408073939
:100338000319AB298A2901300310FD0CFC0CFB0CB6
:10034800FF3E031DA0290130A0002008A5072608AC
:100358002506031D9F29A41FC129FF30F806FF3079
:10036800F906FF30FA060130F807003003180130AB
:10037800F907003003180130FA07241FD329FF308A
:10038800FB06FF30FC06FF30FD060130FB0700309E
:1003980003180130FC07003003180130FD07A401E1
:1003A8007808FB07790803110318790A031DFC076D
:1003B8007A08031103187A0A031DFD07FD1FF629A1
:1003C800FF30FB06FF30FC06FF30FD060130FB075F
:1003D800003003180130FC07003003180130FD0716
:1003E800A401A40A7B08F0007C08F1007D08F20053
:1003F8002608A0002008F3002408A1002108F40022
:100408008A1597247008F8007108F9007208FA0034
:1004180008008A15F1228A1149308400A030831619
:100428000313D5000408D6000C30D7005508840003
:1004380083130008D800D50A56088400580880009D
:10044800D60AD70B1A2A8A154E228A113730840009
:10045800A03083160313D5000408D6000C30D7004B
:100468005508840083130008D800D50A560884006C
:1004780058088000D60AD70B342A3D3084008A15E4
:100488000A208A1183120313C3008A150A208A11CD
:10049800C4008A150C228A114A308400A0308316C1
:1004A8000313D5000408D6000C30D7005508840083
:1004B80083130008D800D50A56088400580880001D
:1004C800D60AD70B5A2A4F3083120313D60080302E
:1004D800D7008A1589238A1137308400A030831603
:1004E8000313D5000408D6000C30D7005508840043
:1004F80083130008D800D50A5608840058088000DD
:10050800D60AD70B7A2A393084008A150A208A112C
:1005180083120313C3008A150A208A11C4008A159E
:100528000C228A114A308400A03083160313D500A8
:100538000408D6000C30D70055088400831300083F
:10054800D800D50A5608840058088000D60AD70B68
:10055800A02A893083120313D6008030D7008A1569
:1005680089238A11E830F0000330F1008A15AF21A1
:100578008A1149308400A03083160313D50004087B
:10058800D6000C30D7005508840083130008D80023
:10059800D50A5608840058088000D60AD70BC72AFF
:1005A8008A154E228A114A308400A030831603131C
:1005B800D5000408D6000C30D700550884008313F2
:1005C8000008D800D50A5608840058088000D60AC2
:1005D800D70BE12A603083120313D6008030D7008E
:1005E8008A1589238A1137308400A03083160313B3
:1005F800D5000408D6000C30D700550884008313B2
:100608000008D800D50A5608840058088000D60A81
:10061800D70B012B393084008A150A208A118312DE
:100628000313C3008A150A208A11C4008A150C22F4
:100638008A1162308400A03083160313D5000408A1
:10064800D6000C30D7005508840083130008D80062
:10065800D50A5608840058088000D60AD70B272BDD
:10066800AD3083120313EE000530EF008A15C12266
:100678008A11E830F0000330F1008A15AF218A11A1
:1006880049308400A03083160313D5000408D6002F
:100698000C30D7005508840083130008D800D50A09
:1006A8005608840058088000D60AD70B4E2B8A15A6
:1006B8004E228A114A308400A03083160313D500D5
:1006C8000408D6000C30D7005508840083130008AE
:1006D800D800D50A5608840058088000D60AD70BD7
:1006E800682B703083120313D6008030D7008A1528
:1006F80089238A1137308400A03083160313D5006C
:100708000408D6000C30D70055088400831300086D
:10071800D800D50A5608840058088000D60AD70B96
:10072800882B393084008A150A208A118312031312
:10073800C3008A150A208A11C4008A150C228A115E
:10074800BD308400A03083160313D5000408D600FA
:100758000C30D7005508840083130008D800D50A48
:100768005608840058088000D60AD70BAE2BE9300B
:10077800C900F630CA004230CB000230CC0000304D
:10078800CD008A1112208A11E830F0000330F10000
:100798008A15AF218A11102A831203132C032D0402
:1007A800031DF72C2A08840083172B1C83130F3092
:1007B8000005B2002F08B4002E08B300043003105F
:1007C800B40CB30CFF3E031DE32B33080F39B500FF
:1007D80003300310B50DFF3E031DED2B0310350D3F
:1007E8003204B6002A08840083172B1C83133608AA
:1007F800800030033104031D1E2C70308400223029
:10080800B2000408B3000C30B4003208840083132B
:100818000008B500B20A3308840035088000B30A1E
:10082800B40B092C2408B6003608FC008A15C1212F
:100838008A113C2C70308400223083120313B200DA
:100848000408B3000C30B400320884008313000895
:10085800B500B20A3308840035088000B30AB40B27
:10086800282C2408B6003608FC008A15D6218A11DF
:1008780070308400223083120313B2000408B300DE
:100888000C30B4003208840083130008B500B20AA3
:100898003308840035088000B30AB40B462C2608B8
:1008A800B6003608FC008A15D6218A1170308400FB
:1008B800223083120313B2000408B3000C30B400D2
:1008C8003208840083130008B500B20A3308840094
:1008D80035088000B30AB40B642C2808B600360823
:1008E800FC008A15C1218A118A158C218A11703061
:1008F8008400223083120313B2000408B3000C30C2
:10090800B4003208840083130008B500B20A330823
:10091800840035088000B30AB40B852C2808B6007B
:100928003608FC008A15D6218A11831203132A0877
:10093800840083172B1C83130F300005B2002E0888
:100948000F39B30003300310B30DFF3E031DA72C6E
:100958000310330D3204B4002A08840083172B1CBB
:10096800831334088000703084002230B2000408F9
:10097800B3000C30B4003208840083130008B500BB
:10098800B20A3308840035088000B30AB40BBF2CC0
:100998002808B6003608FC008A15C1218A118A1574
:1009A8008C218A1170308400223083120313B20024
:1009B8000408B3000C30B400320884008313000824
:1009C800B500B20A3308840035088000B30AB40BB6
:1009D800E02C2808B6003608FC008A15D6218A11B2
:1009E8008A158C2108008312031330033104031D78
:1009F8001A2D703084002230B2000408B3000C3085
:100A0800B4003208840083130008B500B20A330822
:100A1800840035088000B30AB40B052D2408B600FD
:100A28003608FC008A15C1218A11382D70308400DF
:100A3800223083120313B2000408B3000C30B40050
:100A48003208840083130008B500B20A3308840012
:100A580035088000B30AB40B242D2408B6003608E4
:100A6800FC008A15D6218A11703084002230831246
:100A78000313B2000408B3000C30B4003208840039
:100A880083130008B500B20A3308840035088000D3
:100A9800B30AB40B422D2608B6003608FC008A15A6
:100AA800D6218A11831203132E08B2002A08840063
:100AB80083172B1C83133208800070308400223087
:100AC800B2000408B3000C30B40032088400831369
:100AD8000008B500B20A3308840035088000B30A5C
:100AE800B40B692D2808B6003608FC008A15C12108
:100AF8008A118A158C218A11703084002230831261
:100B08000313B2000408B3000C30B40032088400A8
:100B180083130008B500B20A330884003508800042
:100B2800B30AB40B8A2D2808B6003608FC008A15CB
:100B3800D621080083120313BE002B30B3003308FC
:100B4800B8000130AA07FF302A0784008A150A2056
:100B58008A11B3003308C30043080319F22F253064
:100B680043060319C32D4308B3003E088400330825
:100B7800831380000130B3003308BE07A52DBF01E1
:100B8800C001BD012A0884008A150A208A118A1129
:100B980004208A11031C062E83120313BF01C0010F
:100BA8000A30F0000030F100831203134008F3000C
:100BB8003F08F2008A152D228A1171088312031347
:100BC800C0007008BF002A0884008A150A208A110C
:100BD800D03EB300FF3003180030B4003308BF071D
:100BE8000318C00A3408C0070130B3003308AA0745
:100BF8002A0884008A150A208A118A1104208A1179
:100C08000318D42D831203132A0884008A150A2096
:100C18008A112E3A031D482E0130B3003308AA0763
:100C2800C101C2012A0884008A150A208A118A1182
:100C380004208A11031C512E831203134208F10069
:100C48004108F0000A30F2000030F3008A152D2226
:100C58008A11831203132A0884008A150A208A112C
:100C68007007B3000030031801307107B40033086F
:100C7800D03EC10034080318013EFF3EC2000130D7
:100C8800B3003308AA07162E83120313C101C20149
:100C9800512E3D16512E3D176C2E01308312031331
:100CA800AA07FF302A0784008A150A208A11C30080
:100CB800003A0319F22F643A03196C2E0D3A0319FE
:100CC8006C2E053A03194D2E193A03194F2EA52DEE
:100CD8003D1BA72E3D1E802E380884008313000874
:100CE800B900840A0008BA00840A0008BB00840A14
:100CF8000008BC000430922E3808840083130008D2
:100D0800B300840A0008B4003308B9003408BA00F4
:100D18000030BA1BFF30BB00BC000230B300330800
:100D2800B807BC1FCB2E0330B3003308BD04B90984
:100D3800BA09BB09BC09B90A0319BA0A0319BB0ADB
:100D48000319BC0ACB2E3D1EB92E38088400831324
:100D58000008B900840A0008BA00840A0008BB0029
:100D6800840A0008BC000430C82E380884008313A5
:100D78000008B300840A0008B4003308B900340836
:100D8800BA00BB01BC010230B3003308B807410800
:100D98004204031DDB2E3C083B043A043904031DBE
:100DA800DB2E0130C1070318C20A0030C207C30195
:100DB800C30A0A3043060319152F4308B30001304C
:100DC8000310B30DFF3E031DE42E0310330D013E47
:100DD80084008A150A208A11B4008A150A208A110B
:100DE800B5008A150A208A11B6008A150A208A11C8
:100DF800B70037083C02031D0B2F36083B02031DC2
:100E08000B2F35083A02031D0B2F34083902031C37
:100E1800152F0130B3003308C3070A304306031DFA
:100E2800E12E4308B300B401B31BB4033408803A7D
:100E3800B5004208803A3502031D242F41083302C9
:100E480003182D2F831203134108B3003308C3007E
:100E5800472F831203134308B300B401B31BB40331
:100E68004208803AB5003408803A3502031D3E2F07
:100E7800330841020318472F831203134308C100A4
:100E8800C201C11BC203831203133F0840040319A4
:100E9800572F3D0803390319572FFF30BF07031891
:100EA800C00AFF30C0074308B300B401B31BB40342
:100EB8003408803AB5004008803A3502031D662F91
:100EC8003F0833020318762F831203134308B30035
:100ED800B401B31BB4033308BF023408031CC003B6
:100EE800C0027A2F83120313BF01C0013F084004D8
:100EF8000319932F2030B3003E088400330883136E
:100F080080000130B3003308BE07FF30BF07031865
:100F1800C00AFF30C0073F084004031D7E2F3D086C
:100F280003390319A22F2D30B3003E08840033087B
:100F3800831380000130B3003308BE07FF30C107B8
:100F48000318C20AFF30C207410A0319420A0319EB
:100F5800A52D0030A3000030A2000030A1000A3007
:100F6800A0004108B30001300310B30DFF3E031D7C
:100F7800B82F0310330D013E84008A150A208A1108
:100F8800F0008A150A208A11F1008A150A208A11B0
:100F9800F2008A150A208A11F3003C08F7003B0882
:100FA800F6003A08F5003908F4008A1539248A1140
:100FB800730883120313A7007208A6007108A5001E
:100FC8007008A4008A153B238A1183120313200892
:100FD800303EB4003408C3004308982F3E0884000C
:100FE8008313800108008313A0308400BD308A1564
:100FF8009B2183018A110D2AFF1B0A2883137F185E
:1010080083170008840A0319FF0A080008308A00B9
:101018000408840A820700340134003400340034A0
:101028000A340034003400346434003400340034AA
:10103800E8340334003400341034273400340034E6
:10104800A034863401340034403442340F34003440
:1010580080349634983400340034E134F53405345F
:101068000034CA349A343B34783400347034003451
:101078006834003460340034583400345034003458
:101088004834003440340034C03400343C34003434
:1010980080340034383400342834003420340034A8
:1010A8000F3400340E3400340C3400340634003469
:1010B800013400344D3445345234483441344234D8
:1010C80041342034443455344E34593441344C344A
:1010D80049342134003449344E3454344534473487
:1010E8004534523420344F3452344E344534473426
:1010F80049343A34003446344C344F34413454344F
:1011080020344F3452344E344534473449343A3419
:10111800003425346C3475342E34253436342E346A
:1011280036346C347534003428343A340034253479
:0411380064340034E7
:10131800C830F0000030F1008A15A32108007208D7
:1013280071047004031908008030F2060800640094
:101338008001840A04060319003404069C297008F5
:1013480071040319080000000130F0020030031C8A
:10135800F103F102A3297008710403190800C730CA
:10136800F200B629F20BB529B929BA290130F002E1
:101378000030031CF103F102AF290130831203137B
:10138800A0007C0AC9290310A00DFF3E031DC72930
:101398002008A100700884008317711C831321089A
:1013A80080040800013083120313A0007C0ADE29A0
:1013B8000310A00DFF3E031DDC292008FF3AA10001
:1013C800700884008317711C8313210880050800A6
:1013D800831203132908280427040319F5298030E8
:1013E800A9062A08F8002B08F9002C08FA00270893
:1013F800FB002808FC002908FD008A11072178084D
:1014080083120313A7007908A8007A08A900080026
:1014180022308400373083120313C5000408C60045
:101428000C30C7004508840083130008C800C50AAB
:101438004608840048088000C60AC70B162A4408D4
:10144800AF004308AE000030B000B1008A11D023CD
:101458000800F401F501701C372A7208F407031814
:10146800F50A7308F50701300310F20DF30DFF3E7E
:10147800031D382A01300310F10CF00CFF3E031D48
:101488003F2A70087104031D2F2A7508F10074089B
:10149800F000080037308400493083120313D50068
:1014A8000408D6000C30D7005508840083130008C0
:1014B800D800D50A5608840058088000D60AD70BE9
:1014C800582A4D3084008A150A208A15C3008A15C7
:1014D8000A208A15C4008A150C22080022308400CC
:1014E800373083120313C4000408C5000C30C6004B
:1014F8004408840083130008C700C40A4508840010
:1015080047088000C50AC60B7C2A4308C800C901E1
:101518004808AE004908AF000130B0000030B10003
:101528008A11D02308008E30FC007C08FD00FF30B3
:101538007B050319AD2A01300310FB0CFA0CF90CDA
:10154800F80CFF3E031DA02A0130FC007C08FD07B3
:101558009B2A7808F0007908F1007A08F2007D08E3
:10156800FC007C08F300F4018A1597247008F80041
:101578007108F9007208FA0008008C30831603130A
:10158800BD003D0883120313AA006F08AC006E0863
:10159800AB00C1308A119E258A154A30840062301A
:1015A80083160313BD000408BE000C30BF003D08BD
:1015B800840083130008C000BD0A3E088400400868
:1015C8008000BE0ABF0BDB2AC13083120313D6008A
:1015D8000030D7008A1589230800831203171E12CA
:1015E8009E121E139E131F109F101F119F1183160A
:1015F80003138601831203138601831603138701DD
:10160800831203138701003083160313A9000730E0
:10161800A8000030A1000630A0000430A20000306D
:10162800A3000530A4000030A5000630A600003055
:10163800A7000130AA000030AB0059308400A03068
:1016480083120313EB000408EC000C30ED006B0868
:10165800840083130008EE00EB0A6C0884006E080F
:101668008000EC0AED0B2B2B8A150C27080083123F
:10167800031323082204210420040319802BA90141
:10168800A90AA31B552B0130A8000310A00DA10D1A
:10169800A20DA30DA80B492B0130A8002808A90703
:1016A800452B23082702031D632B22082602031D4E
:1016B800632B21082502031D632B20082402031C29
:1016C800732B2008A4022108031C210FA50222085D
:1016D800031C220FA6022308031C230FA7020130B4
:1016E8000310A30CA20CA10CA00CFF3E031D742B2D
:1016F8000130A902031D552B2708A3002608A200C4
:101708002508A1002408A000080083120313E001A3
:10171800E10160085607D9005708D8000318D80A0D
:10172800E01BD803831203135808DA005A08FF0095
:10173800590884008A1500208A15003A0319080000
:10174800373084004A30D8000408D9000C30DA0059
:101758005808840083130008DB00D80A590884005D
:101768005B088000D90ADA0BAC2B60085607DD004D
:101778005708DC000318DC0AE01BDC0383120313A0
:101788005C08DE005E08FF005D0884008A15002002
:101798008A15DF005F08C3008A1572228A15013096
:1017A80083120313E0070318E10A0030E1078D2BC9
:1017B800F21F032C0030F6000030F7008030F800EC
:1017C8007009F9007109FA007209FB00F90A031996
:1017D800FA0A0319FB0A7908F6077A0803187A0F38
:1017E800F62BF72BF7077B0803187B0FFC2BFD2B39
:1017F800F8077608F0007708F1007808F200F51F7E
:101808002A2C0030F6000030F7008030F800730909
:10181800F9007409FA007509FB00F90A0319FA0AB4
:101828000319FB0A7908F6077A0803187A0F1D2CA2
:101838001E2CF7077B0803187B0F232C242CF80792
:101848007608F3007708F4007808F5008030F2068F
:101858008030F50675087202031D080074087102CD
:10186800031D08007308700208000030FC000030F7
:10187800FB000030FA000030F900730872047104AC
:10188800700403198E2CFD01FD0AF31B592C01303D
:10189800F8000310F00DF10DF20DF30DF80B4D2CBF
:1018A8000130F8007808FD07492C0130F8000310D2
:1018B800F90DFA0DFB0DFC0DF80B5B2C7308770284
:1018C800031D702C72087602031D702C71087502B6
:1018D800031D702C70087402031C812C7008F4021C
:1018E8007108031C710FF5027208031C720FF602CF
:1018F8007308031C730FF702791401300310F30CFB
:10190800F20CF10CF00CFF3E031D822C0130FD029D
:10191800031D592C7C08F3007B08F2007A08F100BB
:101928007908F0000800730803199F2C72087104E5
:101938007004031DB22C0030F0000030F1000030BC
:10194800F20008000130F5007508F30701300310B4
:10195800F20CF10CF00CFF3E031DAB2CFE307205AF
:101968000319CD2CA62C0130F5007508F3070130BA
:10197800F007003003180130F10700300318013078
:10198800F20701300310F20CF10CF00CFF3E031DBE
:10199800C62CFF3072050319DC2CB72C0130F3027A
:1019A80001300310F00DF10DF20DFF3E031DD52C93
:1019B800F11BE22C023073020318D22C7318EA2CA4
:1019C800FF30F0057F30F105FF30F2050310F30C0E
:1019D8007308F500F601F70110300310F50DF60D48
:1019E800F70DFF3E031DF12C7508F0047608F1048D
:1019F8007708F204740803190800F2170800831224
:101A080003132A08AE002B08AF002C08B0000310FF
:101A18002F0D300DB1003108B7003708031D1D2DFB
:101A28000030AD000030AC000030AB000030AA0040
:101A380008002A08AE002B08AF002C08B0001730A9
:101A48000310B00CAF0CAE0CFF3E031D242D2E0866
:101A5800B1003108B200AB17FF30AA05FF30AB0563
:101A68000030AC052A08B3002B08B4002C08B500D8
:101A7800B6018E30B702B71F5F2D3708803A8F3E08
:101A880003184F2D0030AD000030AC000030AB0023
:101A98000030AA00080001300310B60CB50CB40CD5
:101AA800B30CFF3E031D502D0130AE002E08B707C2
:101AB80003197A2D4F2D18303702031C772D00306B
:101AC800AD000030AC000030AB000030AA000800C8
:101AD8000130AE000310B30DB40DB50DB60DAE0B4D
:101AE8006E2D0130B7023708031D6C2D320803191B
:101AF800882DB309B409B509B609B30A0319B40A9C
:101B08000319B50A0319B60A3608AD003508AC0042
:101B18003408AB003308AA000800AC308312031362
:101B2800C8004808D1004408F0004508F1004608FC
:101B3800F2000030F3000030F4000030F5008A15A0
:101B4800DC238A150318C62D2D3083120313C80011
:101B5800510884004808831380000130C8004808F1
:101B6800D1074408F0004508F1004608F2008A153C
:101B780093218A15700883120313C4007108C500E5
:101B88007208C600831203134408AA004508AB0074
:101B98004608AC008A1503258A15831203132D08FD
:101BA800D0002C08CF002B08CE002A08CD00500802
:101BB800FB004F08FA004E08F9004D08F8008A1596
:101BC80097228A15780883120313A7007908A800BA
:101BD8007A08A9004408AA004508AB004608AC00EA
:101BE8008A15EC218A15831203132708C4002808D4
:101BF800C5002908C6004408FB004508FC00460843
:101C0800FD002430F8007430F9004930FA008A15D4
:101C18003C268A15780883120313AA007908AB00BA
:101C28007A08AC008A1503258A15831203132D0838
:101C3800CC002C08CB002B08CA002A08C9007E302B
:101C4800C8004808AA005008AE004F08AD004E086A
:101C5800AC004D08AB004C08B2004B08B1004A0874
:101C6800B0004908AF0051088A119E25AC30080021
:101C7800780883120313A0007908A1007A08A2004B
:101C88000310210D220DA3002308A4002408031D1E
:101C9800542E0030F8000030F9000030FA00080037
:101CA8007B08A0007C08A1007D08A2000310210D7C
:101CB800220DA3002308A9002908031D6A2E00305D
:101CC800F8000030F9000030FA00080029087B3ECF
:101CD800A0002008A4077808A0007908A1007A08C5
:101CE800A20010300310A20CA10CA00CFF3E031D93
:101CF800762E2008A3002308A9007B08A0007C08F2
:101D0800A1007D08A20010300310A20CA10CA00CA9
:101D1800FF3E031D882E2008A3002308A906803053
:101D2800A0002008A905F917FC17FF30FB05FF30B4
:101D3800FC050030FD050030A5000030A60000308D
:101D4800A7000730A0002008A800781CB92E7B083F
:101D5800A5077C08031103187C0A031DA6077D0844
:101D6800031103187D0A031DA70701300310FA0C9D
:101D7800F90CF80CFF3E031DBA2E01300310FB0DC1
:101D8800FC0DFD0DFF3E031DC22E0130A802031DF0
:101D9800A92E0930A0002008A800781CE12E7B0895
:101DA800A5077C08031103187C0A031DA6077D08F4
:101DB800031103187D0A031DA70701300310FA0C4D
:101DC800F90CF80CFF3E031DE22E01300310A70C9E
:101DD800A60CA50CFF3E031DEA2E0130A802031D28
:101DE800D12E2508F0002608F1002708F200240863
:101DF800A0002008F3002908A1002108F4008A1592
:101E080097247008F8007108F9007208FA000800B1
:101E18008312031363036404031D4C2F37308400BB
:101E28005930E5000408E6000C30E7006508840036
:101E380083130008E800E50A660884006808800043
:101E4800E60AE70B1A2F3330C3000030C4008A15A6
:101E58000C228A1537308400593083120313E500A9
:101E68000408E6000C30E7006508840083130008C6
:101E7800E800E50A6608840068088000E60AE70BBF
:101E8800382F3230C3000030C4008A150C228A155E
:101E980083120313630364040319542F3F30552F2F
:101EA800413084008A150A208A15E9008A150A201B
:101EB8008A15EA00373084005930E5000408E60046
:101EC8000C30E7006508840083130008E800E50A81
:101ED8006608840068088000E60AE70B662F6A082F
:101EE800C4006908C3008A150C228A15373084009B
:101EF800593083120313E5000408E6000C30E700AC
:101F08006508840083130008E800E50A6608840071
:101F180068088000E60AE70B842F3D3084008A15A4
:101F28000A208A15C3008A150A208A15C4008A1552
:101F38000C228A1537308400593083120313E500C8
:101F48000408E6000C30E7006508840083130008E5
:101F5800E800E50A6608840068088000E60AE70BDE
:101F6800A82F493084008A150A208A15C3008A15CB
:101F78000A208A15C4008A150C228A153730840075
:101F8800593083120313E5000408E6000C30E7001B
:101F98006508840083130008E800E50A66088400E1
:101FA80068088000E60AE70BCC2F4B3084008A15BE
:101FB8000A208A15C3008A150A208A15C4008A15C2
:101FC8000C228A1549308400593083120313E50026
:101FD8000408E6000C30E700650884008313000855
:101FE800E800E50A6608840068088000E60AE70B4E
:081FF800F02F8A154E220800AB
:02400E00F4FFBD
:00000001FF
